:020000040800F2
:1000000000000120C9230008A50D0008A70D000865
:10001000A90D0008AB0D0008AD0D000800000000A0
:10002000000000000000000000000000AF0D00080C
:10003000B10D000800000000B30D0008B50D000868
:1000400011240008112400081124000811240008BC
:1000500011240008112400081124000811240008AC
:10006000112400081124000811240008112400089C
:10007000112400081124000811240008112400088C
:10008000112400081124000811240008112400087C
:10009000112400081124000811240008112400086C
:1000A000112400081124000811240008112400085C
:1000B000112400081124000811240008112400084C
:1000C000112400081124000811240008112400083C
:1000D00011240008BD0D0008112400081124000897
:1000E000112400081124000811240008112400081C
:1000F000112400081124000811240008112400080C
:1001000011240008112400081124000811240008FB
:1001100011240008112400081124000811240008EB
:1001200011240008112400081124000811240008DB
:1001300000000000000000000000000000000000BF
:1001400000000000000000000000000000000000AF
:10015000000000000000000000000000000000009F
:10016000000000000000000000000000000000008F
:10017000000000000000000000000000000000007F
:10018000000000000000000000000000000000006F
:10019000000000000000000000000000000000005F
:1001A000000000000000000000000000000000004F
:1001B000000000000000000000000000000000003F
:1001C000000000000000000000000000000000002F
:1001D000000000000000000000000000000000001F
:0401E0005FF8E0F1F3
:1001E80010B5054C237833B9044B13B10448AFF369
:1001F80000800123237010BDE001002000000000F2
:10020800C44F000808B5034B1BB103490348AFF3BB
:10021800008008BD00000000E4010020C44F000871
:10022800034613F8012B002AFBD1181A013870472E
:1002380081F0004102E000BF83F0004330B54FEA8F
:1002480041044FEA430594EA050F08BF90EA020FFC
:100258001FBF54EA000C55EA020C7FEA645C7FEA8F
:10026800655C00F0E2804FEA5454D4EB5555B8BFB2
:100278006D420CDD2C4480EA020281EA030382EA23
:10028800000083EA010180EA020281EA0303362DB5
:1002980088BF30BD11F0004F4FEA01314FF4801C88
:1002A8004CEA113102D0404261EB410113F0004F9A
:1002B8004FEA03334CEA133302D0524263EB430351
:1002C80094EA050F00F0A780A4F10104D5F1200EEF
:1002D8000DDB02FA0EFC22FA05F2801841F100014A
:1002E80003FA0EF2801843FA05F359410EE0A5F11E
:1002F80020050EF1200E012A03FA0EFC28BF4CF04F
:10030800020C43FA05F3C01851EBE37101F0004504
:1003180007D54FF0000EDCF1000C7EEB00006EEB11
:100328000101B1F5801F1BD3B1F5001F0CD349089B
:100338005FEA30004FEA3C0C04F101044FEA4452F2
:1003480012F5800F80F09A80BCF1004F08BF5FEA79
:10035800500C50F1000041EB045141EA050130BD59
:100368005FEA4C0C404141EB0101013C28BFB1F56B
:10037800801FE9D291F0000F04BF01460020B1FAB6
:1003880081F308BF2033A3F10B03B3F120020CDA89
:100398000C3208DD02F1140CC2F10C0201FA0CF067
:1003A80021FA02F10CE002F11402D8BFC2F1200CCC
:1003B80001FA02F120FA0CFCDCBF41EA0C01904082
:1003C800E41AA2BF01EB0451294330BD6FEA0404CB
:1003D8001F3C1CDA0C340EDC04F11404C4F12002B6
:1003E80020FA04F001FA02F340EA030021FA04F3C8
:1003F80045EA030130BDC4F10C04C4F1200220FA1F
:1004080002F001FA04F340EA0300294630BD21FA5C
:1004180004F0294630BD94F0000F83F4801306BF22
:1004280081F480110134013D4EE77FEA645C18BF16
:100438007FEA655C29D094EA050F08BF90EA020FAD
:1004480005D054EA000C04BF1946104630BD91EAA5
:10045800030F1EBF0021002030BD5FEA545C05D1A8
:100468004000494128BF41F0004130BD14F58004E7
:100478003CBF01F5801130BD01F0004545F0FE415B
:1004880041F470014FF0000030BD7FEA645C1ABF90
:10049800194610467FEA655C1CBF0B46024650EAC7
:1004A800013406BF52EA033591EA030F41F40021F3
:1004B80030BD00BF90F0000F04BF0021704730B579
:1004C8004FF4806404F132044FF000054FF000014E
:1004D80050E700BF90F0000F04BF0021704730B50F
:1004E8004FF4806404F1320410F0004548BF4042E4
:1004F8004FF000013EE700BF42004FEAE2014FEA39
:1005080031014FEA02701FBF12F07F4393F07F4F13
:1005180081F06051704732F07F4208BF704793F016
:100528007F4F04BF41F40021704730B54FF4607429
:1005380001F0004521F000411CE700BF50EA01022C
:1005480008BF704730B54FF000050AE050EA0102D5
:1005580008BF704730B511F0004502D5404261EB45
:1005680041014FF4806404F132045FEA915C3FF486
:10057800D8AE4FF003025FEADC0C18BF03325FEA23
:10058800DC0C18BF033202EBDC02C2F1200300FAD4
:1005980003FC20FA02F001FA03FE40EA0E0021FAF9
:1005A80002F11444BDE600BF70B54FF0FF0C4CF4E7
:1005B800E06C1CEA11541DBF1CEA135594EA0C0F99
:1005C80095EA0C0F00F0DEF82C4481EA030621EAD4
:1005D8004C5123EA4C5350EA013518BF52EA03350F
:1005E80041F4801143F4801338D0A0FB02CE4FF0C1
:1005F8000005E1FB02E506F00042E0FB03E54FF0F1
:100608000006E1FB03569CF0000F18BF4EF0010EE8
:10061800A4F1FF04B6F5007F64F5407404D25FEAE4
:100628004E0E6D4146EB060642EAC62141EA555197
:100638004FEAC52040EA5E504FEACE2EB4F1FD0CD9
:1006480088BFBCF5E06F1ED8BEF1004F08BF5FEA57
:10065800500E50F1000041EB045170BD06F0004609
:1006680046EA010140EA020081EA0301B4EB5C04B6
:10067800C2BFD4EB0C0541EA045170BD41F48011AE
:100688004FF0000E013C00F3AB8014F1360FDEBFD3
:10069800002001F0004170BDC4F10004203C35DAAF
:1006A8000C341BDC04F11404C4F1200500FA05F332
:1006B80020FA04F001FA05F240EA020001F00042D3
:1006C80021F0004110EBD37021FA04F642EB060149
:1006D8005EEA430E08BF20EAD37070BDC4F10C0473
:1006E800C4F1200500FA04F320FA05F001FA04F237
:1006F80040EA020001F0004110EBD37041F1000123
:100708005EEA430E08BF20EAD37070BDC4F120052D
:1007180000FA05F24EEA020E20FA04F301FA05F295
:1007280043EA020321FA04F001F0004121FA04F23D
:1007380020EA020000EBD3705EEA430E08BF20EA0D
:10074800D37070BD94F0000F0FD101F00046400047
:1007580041EB010111F4801F08BF013CF7D041EAC9
:10076800060195F0000F18BF704703F000465200CD
:1007780043EB030313F4801F08BF013DF7D043EA9E
:100788000603704794EA0C0F0CEA135518BF95EA54
:100798000C0F0CD050EA410618BF52EA4306D1D1DB
:1007A80081EA030101F000414FF0000070BD50EAFA
:1007B800410606BF1046194652EA430619D094EA84
:1007C8000C0F02D150EA013613D195EA0C0F05D16E
:1007D80052EA03361CBF104619460AD181EA0301C2
:1007E80001F0004141F0FE4141F470014FF000007A
:1007F80070BD41F0FE4141F4780170BD70B54FF015
:10080800FF0C4CF4E06C1CEA11541DBF1CEA135594
:1008180094EA0C0F95EA0C0F00F0A7F8A4EB050476
:1008280081EA030E52EA03354FEA013100F088806D
:100838004FEA03334FF0805545EA131343EA126336
:100848004FEA022245EA111545EA10654FEA0026EB
:100858000EF000419D4208BF964244F1FD0404F5A4
:10086800407402D25B084FEA3202B61A65EB030500
:100878005B084FEA32024FF480104FF4002CB6EBBD
:10088800020E75EB030E22BFB61A754640EA0C003D
:100898005B084FEA3202B6EB020E75EB030E22BF7D
:1008A800B61A754640EA5C005B084FEA3202B6EBBE
:1008B800020E75EB030E22BFB61A754640EA9C007D
:1008C8005B084FEA3202B6EB020E75EB030E22BF4D
:1008D800B61A754640EADC0055EA060E18D04FEA0B
:1008E800051545EA16754FEA06164FEAC30343EAAB
:1008F80052734FEAC2025FEA1C1CC0D111F4801F78
:100908000BD141EA00014FF000004FF0004CB6E770
:1009180011F4801F04BF01430020B4F1FD0C88BF0F
:10092800BCF5E06F3FF6AFAEB5EB030C04BFB6EB1A
:10093800020C5FEA500C50F1000041EB045170BD0D
:100948000EF0004E4EEA113114EB5C04C2BFD4EB3A
:100958000C0541EA045170BD41F480114FF0000EBE
:10096800013C90E645EA060E8DE60CEA135594EA3A
:100978000C0F08BF95EA0C0F3FF43BAF94EA0C0F3D
:100988000AD150EA01347FF434AF95EA0C0F7FF4B2
:1009980025AF104619462CE795EA0C0F06D152EA06
:1009A80003353FF4FDAE1046194622E750EA4106EA
:1009B80018BF52EA43067FF4C5AE50EA41047FF4FB
:1009C8000DAF52EA43057FF4EBAE12E74FF0FF3C60
:1009D80006E000BF4FF0010C02E000BF4FF0010C31
:1009E8004DF804CD4FEA410C7FEA6C5C4FEA430CAA
:1009F80018BF7FEA6C5C1BD001B050EA410C0CBFF9
:100A080052EA430C91EA030F02BF90EA020F00205A
:100A1800704710F1000F91EA030F58BF994208BFC1
:100A280090422CBFD8176FEAE37040F0010070477E
:100A38004FEA410C7FEA6C5C02D150EA013C07D1D5
:100A48004FEA430C7FEA6C5CD6D152EA033CD3D020
:100A58005DF8040B704700BF8446104662468C461A
:100A68001946634600E000BF01B5FFF7B7FF00284D
:100A780048BF10F1000F01BD4DF808EDFFF7F4FF76
:100A88000CBF012000205DF808FB00BF4DF808ED01
:100A9800FFF7EAFF34BF012000205DF808FB00BF24
:100AA8004DF808EDFFF7E0FF94BF012000205DF846
:100AB80008FB00BF4DF808EDFFF7CEFF94BF0120FB
:100AC80000205DF808FB00BF4DF808EDFFF7C4FFF4
:100AD80034BF012000205DF808FB00BF4FEA410C3D
:100AE8007FEA6C5C02D150EA013C0AD14FEA430C20
:100AF8007FEA6C5C02D152EA033C02D14FF000005D
:100B080070474FF0010070474FEA410212F500129A
:100B180015D211D56FF47873B3EB625212D94FEA3C
:100B2800C12343F0004343EA505311F0004F23FA26
:100B380002F018BF404270474FF00000704750EA7B
:100B4800013005D111F0004008BF6FF00040704738
:100B58004FF00000704700BF4A0011D212F5001292
:100B680011D20DD56FF47873B3EB62520ED44FEAFD
:100B7800C12343F0004343EA505323FA02F070477D
:100B88004FF00000704750EA013002D14FF0FF30BB
:100B980070474FF00000704730B591B000240994B9
:100BA8000B940C94019402940394049405940122E8
:100BB80006924FF48033079308940A9202250D9504
:100BC8000E934FF4E0130F9306A800F045FA0F2395
:100BD8000193029503944FF4806304930594294686
:100BE80001A800F077FC11B030BD000008B500F096
:100BF800E5F9FFF7D1FF00F05BF800F091F800F09D
:100C0800B3FF01F0C5F8002830D11C4802F010F9F4
:100C18004FF47A7000F0F6F901F0E4F8184802F0A1
:100C280007F9184B19884A1C1A80174C628917480B
:100C380002F078F82188164802F074F8618815489F
:100C480002F070F8A188144802F06CF8E1881348A3
:100C580002F068F82189124802F064F8114802F09D
:100C6800E7F84FF47A7000F0CDF9D5E701F090F885
:100C78000128CDD10C4802F055F8C9E7E04F00082B
:100C880008500008FC01002000020020285000083D
:100C98003850000844500008505000085C500008C4
:100CA8006C5000087C500008F04F000870470000A6
:100CB80030B587B000240294039404940594164B2D
:100CC8009A6942F004029A619A6902F00402009259
:100CD800009A9A6942F008029A619B6903F0080336
:100CE8000193019B0D4D01222021284600F0F1FDC2
:100CF80022464FF48071284600F0EBFD4FF49073C4
:100D080002930123039304930223059302A928461F
:100D180000F0BCFC07B030BD00100240000C0140E0
:100D280000B583B00023009301930F480F4A026077
:100D38004722426083604FF6FF72C260836100F011
:100D4800D9F850B90023009301936946064800F08A
:100D5800EBF828B903B05DF804FBFFF7A7FFF1E74C
:100D6800FFF7A4FFF6E700BF1802002000100040BC
:100D78000268094B9A4200D0704782B003F50033ED
:100D8800DA6942F01002DA61DB6903F010030193BB
:100D9800019B02B0704700BF001000407047FEE79B
:100DA800FEE7FEE7FEE770477047704708B500F0BA
:100DB80017F908BD08B5024801F06AFA08BD00BF76
:100DC8005C02002082B00E4B9A6942F001029A61DF
:100DD8009A6902F001020092009ADA6942F08052A0
:100DE800DA61DB6903F080530193019B054A53687C
:100DF80023F0E06343F00073536002B0704700BF14
:100E08000010024000000140022380F83D300268D3
:100E1800936803F00703062B03D0136843F001031C
:100E28001360012380F83D3000207047022380F8CA
:100E38003D300368196A41F21112114208D1196A4A
:100E480040F24442114203D11A6822F001021A60AA
:100E5800012380F83D300020704700000368244AD1
:100E6800904212D002F5006290420ED0B0F1804F4D
:100E78000BD0A2F59832904207D002F580629042DA
:100E880003D002F58062904203D123F070034A68D0
:100E98001343174A904212D002F5006290420ED0D6
:100EA800B0F1804F0BD0A2F59832904207D002F5EE
:100EB8008062904203D002F58062904203D123F40D
:100EC8004073CA68134323F080034A6913430360DD
:100ED8008B68C3620B688362054B984203D003F5A5
:100EE8000063984201D10B69036301234361704792
:100EF800002C0140B0B110B5044690F83D3063B104
:100F0800022384F83D30214651F8040BFFF7A6FF71
:100F1800012384F83D30002010BD80F83C30FFF7F5
:100F280027FFEDE70120704790F83C30012B1CD0DB
:100F380070B4012680F83C60022380F83D300268D6
:100F48005568936825F070050C682C4323F08005DC
:100F58004B682B4354600268936080F83D6000231F
:100F680080F83C30184670BC70470220704700007B
:100F780010B504460E4B18784FF47A73B3FBF0F3B0
:100F88000C4A1068B0FBF3F000F0B2FD68B90F2C02
:100F980001D901200AE0002221464FF0FF3000F07D
:100FA80065FD054B1C60002000E0012010BD00BF5E
:100FB80000000020080000200400002008B5074AAF
:100FC800136843F010031360032000F03DFD002078
:100FD800FFF7CEFFFFF7F6FE002008BD0020024015
:100FE800034A1168034B1B780B441360704700BF1A
:100FF8005802002000000020014B1868704700BF0D
:101008005802002038B50446FFF7F6FF0546B4F14C
:10101800FF3F02D0044B1B781C44FFF7EDFF401B39
:10102800A042FAD338BD00BF0000002082B0084BB0
:101038001B68084AA2FB03235B0A00FB03F3019326
:1010480000BF019B5A1E0192002BF9D102B07047D4
:1010580008000020D34D6210002800F0F18170B51F
:1010680082B00446036813F0010F2CD0AA4B5B68CA
:1010780003F00C03042B1DD0A74B5B6803F00C0393
:10108800082B12D06368B3F5803F41D0002B55D1AF
:1010980003F1804303F504331A6822F480321A609E
:1010A8001A6822F480221A6037E09B4B5B6813F4BD
:1010B800803FE7D0984B1B6813F4003F03D0636868
:1010C800002B00F0BF81236813F0020F75D0924BFC
:1010D8005B6813F00C0F5FD08F4B5B6803F00C0359
:1010E800082B54D02369002B00F089808B4B0122F8
:1010F8001A60FFF781FF0546874B1B6813F0020F44
:1011080074D1FFF779FF401B0228F5D903209EE12F
:10111800814A136843F480331360636843B3FFF76D
:101128006BFF05467C4B1B6813F4003FCBD1FFF7E0
:1011380063FF401B6428F5D9032088E1B3F5A02F8D
:1011480009D0754B1A6822F480321A601A6822F4A2
:1011580080221A60E1E703F18043A3F53C331A6863
:1011680042F480221A601A6842F480321A60D4E786
:10117800FFF742FF0546684B1B6813F4003FA2D0F7
:10118800FFF73AFF401B6428F5D903205FE1624B63
:101198005B6813F4803FA5D15F4B1B6813F0020F07
:1011A80003D02369012B40F04F815B4A136823F079
:1011B800F803616943EAC1031360236813F0080F59
:1011C80032D0A369002B45D0554B01221A60FFF796
:1011D80013FF0546504B5B6A13F0020F21D1FFF74E
:1011E8000BFF401B0228F5D9032030E14A4A136857
:1011F80023F0F803616943EAC1031360DDE7474B55
:1012080000221A60FFF7F8FE0546434B1B6813F0EF
:10121800020FD2D0FFF7F0FE401B0228F5D90320B9
:1012280015E10120FFF702FF236813F0040F00F017
:101238009780394BDB6913F0805F1DD1364BDA6933
:1012480042F08052DA61DB6903F080530193019B1D
:10125800012512E0324B00221A60FFF7CDFE054649
:101268002D4B5B6A13F0020FDED0FFF7C5FE401B63
:101278000228F5D90320EAE000252A4B1B6813F45D
:10128800807F11D0E368012B22D0002B38D103F1E5
:10129800804303F504331A6A22F001021A621A6ABB
:1012A80022F004021A6218E01E4A136843F480739D
:1012B8001360FFF7A1FE06461A4B1B6813F4807FE4
:1012C800E0D1FFF799FE801B6428F5D90320BEE022
:1012D800114A136A43F001031362E36873B3FFF71B
:1012E8008BFE06460C4B1B6A13F0020F37D1FFF733
:1012F80083FE801B41F288339842F3D90320A6E08D
:10130800052B11D0044B1A6A22F001021A621A6ADC
:1013180022F004021A62E0E7001002400000424294
:1013280080044242007000404D4B1A6A42F00402A9
:101338001A621A6A42F001021A62CEE7FFF75CFEEF
:101348000646474B1B6A13F0020F08D0FFF754FEFE
:10135800801B41F288339842F3D9032077E0E5B93E
:10136800E369002B72D03E4A526802F00C02082A48
:1013780056D0022B17D03B4B00221A60FFF73CFED9
:101388000446374B1B6813F0007F47D0FFF734FE45
:10139800001B0228F5D9032059E0314AD36923F00C
:1013A8008053D361DCE72F4B00221A60FFF724FE3D
:1013B80005462B4B1B6813F0007F06D0FFF71CFE79
:1013C800401B0228F5D9032041E0236AB3F5803F8A
:1013D8001AD023494B6823F47413226A606A0243C3
:1013E80013434B601F4B01221A60FFF705FE0446AA
:1013F8001B4B1B6813F0007F0ED1FFF7FDFD001B90
:101408000228F5D9032022E0154A536823F4003353
:10141800A1680B435360DCE7002018E0002016E0C9
:10142800012B16D00E4B5B6803F48031226A91427F
:1014380011D103F47013626A93420ED1002006E0C2
:1014480001207047012002E0012000E0002002B0E6
:1014580070BD0120FBE70120F9E70120F7E700BF95
:10146800001002406000424286B0164B0FCB0DF1CF
:10147800180C0CE90F0040F20123ADF80430124BB0
:101488005B6803F00C02082A02D0104806B07047C7
:10149800C3F38342624412F8102C13F4803F0CD03B
:1014A800094B5B68C3F34043634413F8143C074893
:1014B80000FB02F0B0FBF3F0E8E7054800FB02F0A0
:1014C800E4E700BFA05000080010024000127A00B4
:1014D80000093D00002800F0A08070B50D460446C4
:1014E800524B1B6803F007038B420BD24F4A136819
:1014F80023F007030B431360136803F007038B42C1
:1015080040F08D80236813F0020F17D013F0040FFA
:1015180004D0474A536843F4E0635360236813F0E8
:10152800080F04D0424A536843F460535360404A5A
:10153800536823F0F003A1680B435360236813F04A
:10154800010F31D06368012B20D0022B25D0384AF7
:10155800126812F0020F64D035494A6822F003027B
:1015680013434B60FFF748FD0646314B5B6803F0B9
:101578000C036268B3EB820F16D0FFF73DFD801BAA
:1015880041F288339842F0D9032045E0284A12688E
:1015980012F4003FE0D101203EE0254A126812F023
:1015A800007FD9D1012037E0204B1B6803F00703E7
:1015B800AB420AD91D4A136823F007032B43136073
:1015C800136803F00703AB422DD1236813F0040F0F
:1015D80006D0174A536823F4E063E1680B4353606D
:1015E800236813F0080F07D0114A536823F4605397
:1015F800216943EAC1035360FFF736FF0C4B5B6870
:10160800C3F303130B4AD35CD8400B4B18600B4B46
:101618001868FFF7ADFC002070BD0120704701205D
:10162800FAE70120F8E70120F6E700BF00200240B2
:1016380000100240B45000080800002004000020F8
:10164800014B1868704700BF0800002008B5FFF775
:10165800F7FF044B5B68C3F30223034AD35CD8400B
:1016680008BD00BF00100240C450000808B5FFF7CD
:10167800E7FF044B5B68C3F3C223034AD35CD8403B
:1016880008BD00BF00100240C4500008F0B482B08A
:1016980000252C46ABE0854FBB4210D007D9844FBC
:1016A800BB420CD007F58037BB4208D013E0A7F542
:1016B8008017BB4203D007F57027BB4207D18B6860
:1016C800002B60D0012B59D04261082503E0A7F513
:1016D8008017BB42F3D0FF2E57D88446FF2E57D829
:1016E800A200DCF800300F27974023EA070305FA29
:1016F80002F21343CCF800304B6813F0805F75D0CA
:101708006C4B9A6942F001029A619B6903F00103EC
:101718000193019BA208971C674B53F827C004F05C
:1017280003039F000F23BB402CEA030C634B984232
:1017380034D003F58063984200F0948003F5806309
:10174800984200F0918003F58063984200F08E8003
:1017580003F58063984200F08B8003F5806398421C
:101768001AD006231BE0CD68B5E7CD680435B2E78B
:10177800CD680835AFE7CD680C35ACE702610825C0
:10178800A9E70025A7E70425A5E700F1040CA5E7CC
:10179800A4F108029200A4E7052300E00023BB405F
:1017A80043EA0C030232444F47F822304B6813F4E3
:1017B800803F5FD0424A1368334313604B6813F489
:1017C800003F5DD03E4A5368334353604B6813F47F
:1017D800801F5BD03A4A9368334393604B6813F495
:1017E800001F59D0364AD3681E43D66001340B68AF
:1017F80033FA04F256D00122A24003EA020632EA82
:101808000303F3D14B68122B3FF645AF122B3FF67B
:1018180062AF01A757F823F0C71600086F17000832
:10182800791700088B170008DF160008DF16000874
:10183800DF160008DF160008DF160008DF160008AC
:10184800DF160008DF160008DF160008DF1600089C
:10185800DF160008DF160008DF16000873170008F7
:101868007F17000801239AE7022398E7032396E7E6
:10187800042394E7124A136823EA060313609DE7DA
:101888000F4A536823EA060353609FE70C4A93689C
:1018980023EA06039360A1E7094AD36823EA060608
:1018A800D660A3E702B0F0BC704700BF000022106A
:1018B8000000311000100240000001400008014003
:1018C800000401408368194201D0012070470020BC
:1018D80070470AB10161704709040161704700004F
:1018E80008B590F82130022B03D00423836301202C
:1018F80008BD0268136823F00E03136002681368BA
:1019080023F00103136003684B4A93424ED9783A97
:10191800934224D01432934230D0143293422FD0C1
:10192800143293422FD0143293422FD01432934260
:101938002FD0143293422FD002F5627293422ED0E8
:10194800143293422DD0143293422CD01432934245
:1019580002D04FF4803203E04FF4805200E00122BD
:10196800364B5A60012380F82130002380F820305C
:10197800436B002B5ED098470020B9E71022EFE7B1
:101988004FF48072ECE74FF48052E9E74FF480326D
:10199800E6E74FF48012E3E74FF08072E0E70122B8
:1019A800DEE71022DCE74FF48072D9E7244A93423D
:1019B80024D01432934225D01432934224D01432C6
:1019C800934224D01432934224D01432934224D028
:1019D8001432934224D002F56272934223D0143217
:1019E800934222D01432934221D01432934202D02F
:1019F8004FF4803203E04FF4805200E00122114B93
:101A08005A60AFE71022FAE74FF48072F7E74FF415
:101A18008052F4E74FF48032F1E74FF48012EEE79A
:101A28004FF08072EBE70122E9E71022E7E74FF475
:101A38008072E4E700205BE7800002400004024077
:101A48000800024000000240074AD36823F4E0631C
:101A58001B041B0C000200F4E060034343F0BF6367
:101A680043F40033D360704700ED00E030B4174B07
:101A7800DB68C3F30223C3F10704042C28BF042442
:101A88001D1D062D18D9033B4FF0FF3505FA04F448
:101A980021EA0401994005FA03F322EA03031943F2
:101AA80000280BDB0901C9B200F1604000F5614074
:101AB80080F8001330BC70470023E5E700F00F0002
:101AC8000901C9B2024B1954F4E700BF00ED00E068
:101AD80014ED00E0002807DB00F01F024009012395
:101AE8009340024A42F82030704700BF00E100E00E
:101AF8000138B0F1807F0AD2064B5860064AF021BF
:101B080082F823100020986007221A60704701208D
:101B1800704700BF10E000E000ED00E00F4B1A68CE
:101B280042F001021A6059680D4A0A405A601A6860
:101B380022F0847222F480321A601A6822F4802219
:101B48001A605A6822F4FE025A604FF41F029A6023
:101B5800044B4FF000629A60704700BF00100240CB
:101B68000000FFF800ED00E008B50A480A4B0360E2
:101B78004FF4E133436000238360C36003610C22A8
:101B880042618361C36100F085FA00B908BDFFF7BF
:101B98008DF8FBE75C0200200038014030B587B0C3
:101BA8000023029303930493059302681B4B9A4204
:101BB80001D007B030BD03F558439A6942F480421A
:101BC8009A619A6902F480420092009A9A6942F0F6
:101BD80004029A619B6903F004030193019B4FF48B
:101BE8000073029302230393032305930C4D02A968
:101BF8002846FFF74BFD4FF48063029300240394BB
:101C0800049402A92846FFF741FD224621462520D3
:101C1800FFF72CFF2520FFF75DFFCAE700380140DA
:101C28000008014000B583B001904FF6FF73012210
:101C380001A9034800F05DFA019803B05DF804FBC0
:101C48005C02002070B50C4616460025B54205DA40
:101C580014F8010BFFF7E6FF0135F7E7304670BDD2
:101C680000B585B00023019303934FF4807300936C
:101C7800012801D0022808D00123029369460548AB
:101C8800FFF704FD05B05DF804FB0123019302236F
:101C98000393F1E7000C014038B50446094803688E
:101CA8005D6AFFF7B1F8074B1B685B6AAAB29B1A1B
:101CB800A342F8D3034C2046FFF7B8F82368002264
:101CC8005A6238BD1802002038B50546082411E0CC
:101CD80000224FF480711348FFF7FBFD4620FFF701
:101CE800DBFF01224FF480710E48FFF7F2FD6D080B
:101CF800013CE4B2ACB10220FFF7B2FF00224FF47E
:101D080080710848FFF7E5FD0220FFF7C5FF15F0D1
:101D1800010FDDD001224FF480710248FFF7D9FD91
:101D2800DCE738BD000C014070B50026082404E04B
:101D38003220FFF7B1FF013CE4B224B30220FFF7E1
:101D48008FFF124D00224FF480712846FFF7C1FD26
:101D58000220FFF7A1FF01224FF480712846FFF708
:101D6800B8FD0F20FFF798FF76080120FFF778FFEE
:101D78004FF480712846FFF7A5FD0128D8D166F0F9
:101D88007F06F6B2D4E7304670BD00BF000C0140B4
:101D980010B50220FFF764FF114C00224FF4807148
:101DA8002046FFF796FD4FF41670FFF775FF0122E6
:101DB8004FF480712046FFF78CFD1E20FFF76CFF63
:101DC8000120FFF74DFF4FF480712046FFF77AFDA1
:101DD80084B24FF4FA70FFF75FFF204610BD00BFD2
:101DE800000C014010B5FFF7D3FFCC20FFF76CFFC4
:101DF8004420FFF769FF4FF44870FFF703F9FFF736
:101E0800C7FFCC20FFF760FFBE20FFF75DFFFFF79D
:101E18008BFF0446FFF788FF44EA00239BB2264A5B
:101E28005381072804D95B425381244B2D221A7011
:101E3800214C6089FEF74EFB0022214BFEF7B4FBD4
:101E48000022204BFEF7B0FB00221F4BFEF7F6F9ED
:101E5800FEF782FE80B260811C4BA3FB00235B0B64
:101E680023801B4AA2FB003292091A4BA3FB02C132
:101E7800C90801EB8101A2EB41026280164AA2FB6C
:101E880000125209A3FB02C1C90801EB8101A2EBB0
:101E98004102A280A3FB0012D108A3FB01C3DB0807
:101EA80003EB8303A1EB4303E38001EB8101A0EB88
:101EB8004100208110BD00BF000200200C0000205E
:101EC8000000B03F000059400000E03F5917B7D16B
:101ED800D34D6210CDCCCCCC1F85EB510268D368B2
:101EE80023F49073D3600268536923F001035361AC
:101EF800202380F83A30704790F83930DBB2212B34
:101F080001D0022070478368B3F5805F17D0036A59
:101F18005A1C02621A7803685A60C38C9BB2013B50
:101F28009BB2C3844BB90268D36823F08003D360A3
:101F38000268D36843F04003D36000207047036A07
:101F48001B880268C3F30803536003691BB9036A5B
:101F580002330362E1E7036A01330362DDE700004D
:101F680038B504460268136923F44053C1680B432B
:101F7800136183680269134342691A430168CB6895
:101F880023F4B05323F00C031343CB600268536966
:101F980023F4407381690B4353610268214B9A42D1
:101FA8001FD0FFF753FB00EB800000EB8000636855
:101FB8009B00B0FBF3F01C4DA5FB003251096423D4
:101FC80003FB11031B013233A5FB03235B0903F059
:101FD800F00202EB011203F00F03216813448B6037
:101FE80038BDFFF743FB00EB800000EB800063681F
:101FF8009B00B0FBF3F00C4DA5FB003251096423A4
:1020080003FB11031B013233A5FB03235B0903F018
:10201800F00202EB011203F00F03216813448B60F6
:10202800DEE700BF003801401F85EB512DE9F8437A
:1020380005460F4616469946DDF820802C68246828
:1020480037EA04030CBF01240024B4421FD1B8F1BD
:10205800FF3FF3D0B8F1000F05D0FEF7CDFFA0EB9E
:1020680009004045EAD92A68D36823F4D073D360BD
:102078002A68536923F001035361202385F8393016
:1020880085F83A30002385F83830032000E0002036
:10209800BDE8F88358B310B5044690F839300BB34F
:1020A800242384F839302268D36823F40053D3609A
:1020B8002046FFF755FF2268136923F49043136104
:1020C8002268536923F02A0353612268D36843F4D2
:1020D8000053D3600020E063202384F8393084F86B
:1020E8003A3010BD80F83830FFF758FDD8E70120A6
:1020F80070472DE9F04182B01E4690F83930DBB2C6
:10210800202B58D104460D469046002957D0002A66
:1021180057D090F83830012B55D0012380F838304B
:102128000023C363212380F83930FEF765FF074693
:10213800A4F82480A4F8268017E000963B460022E5
:1021480080212046FFF772FF00283ED12B882268A5
:10215800C3F30803536023690BB9023505E0013561
:1021680003E015F8012B23685A60E38C9BB29BB1FE
:10217800E28C92B2013A92B2E284A368B3F5805F2E
:10218800DBD000963B46002280212046FFF74EFF19
:102198000028E6D003200FE000963B4600224021AD
:1021A8002046FFF743FF90B9202384F839300023F5
:1021B80084F8383000E0022002B0BDE8F081012048
:1021C800FAE70120F8E70220F6E70320F4E7032006
:1021D800F2E7704708B50168CA6822F04002CA6091
:1021E800202280F83920FFF7F4FF002008BD70474F
:1021F80008B590F83A30DBB2222B46D18368B3F5A4
:10220800805F0FD003690BBB03685A68836A591C47
:1022180081621A70C38D9BB2013B9BB2C385F3B137
:10222800002008BD826A036943B903685B68C3F389
:1022380008031380836A02338362EBE703685B68F1
:10224800DBB21380836A01338362E3E703685B6868
:10225800826A511C816203F07F031370DAE7026817
:10226800D36823F02003D3600268D36823F4807313
:10227800D3600268536923F001035361202380F877
:102288003A30FFF7B4FF0020CBE70220C9E77047D8
:1022980010B5044602681368D168526913F00F003C
:1022A80005D113F0200F02D011F0200F13D128B15F
:1022B80012F0010213D111F4907F10D113F0800FA6
:1022C80002D011F0800F69D113F0400F02D011F045
:1022D800400F67D110BD2046FFF78AFFFAE713F0D9
:1022E800010F06D011F4807F03D0E06B40F00100AD
:1022F800E06313F0040F04D01AB1E06B40F0020061
:10230800E06313F0020F04D01AB1E06B40F0040050
:10231800E06313F0080F04D01AB1E26B42F0080230
:10232800E263E26B002AD5D013F0200F02D011F03F
:10233800200F21D123685B6903F04003E26B12F0A0
:10234800080F00D123B32046FFF7C8FD23685A6958
:1023580012F0400F18D05A6922F040025A61636B9C
:1023680073B1124A5A63606BFFF7BAFA0028B1D00A
:10237800606B436B9847ADE72046FFF739FFD9E715
:102388002046FFF784FFA5E72046FFF780FFA1E777
:102398002046FFF77CFF0023E3639BE72046FFF717
:1023A800ABFD97E72046FFF715FF93E7B923000831
:1023B80008B5406A0023C385C384FFF768FF08BDDA
:1023C800002103E00B4B5B58435004310A480B4B88
:1023D80042189A42F6D30A4A02E0002342F8043B24
:1023E800084B9A42F9D3FFF799FB00F00FF8FEF774
:1023F800FDFB7047F454000800000020E0010020B5
:10240800E0010020AC020020FEE7000070B50026C5
:102418000C4D0D4C641BA410A64209D102F0CEFD50
:1024280000260A4D0A4C641BA410A64205D170BDB3
:1024380055F8043B98470136EEE755F8043B9847B2
:102448000136F2E7EC540008EC540008EC5400089C
:10245800F054000803460244934200D1704703F841
:10246800011BF9E7002B2DE9F0471F46BBBF03F11D
:1024780000431F4600232D2388B01446129A109D4E
:102488001370149BDDF84CA023F02008B8F1460F18
:1024980005D0B8F1450F00D10135022300E0032330
:1024A80007AA049206AACDE902A2CDE90035224680
:1024B8003B4600F015FEB8F1470F064602D1119BC6
:1024C800DB0722D5B8F1460F06EB050910D13378A2
:1024D800302B0AD10022002320463946FEF7CCFAD9
:1024E80018B9C5F10105CAF80050DAF80030994466
:1024F8000022002320463946FEF7BEFA08B1CDF87F
:102508001C903022079B4B4507D33046079B159AF2
:102518009B1B136008B0BDE8F087591C07911A701F
:10252800F0E70346F7B5002903F8022BB6BF2D22C2
:102538002B224942092942702BDD0DF10704A446DC
:102548000A2791FBF7F60A46A64607FB1615632AE3
:1025580005F13005314604F1FF340EF8015CF0DC7A
:102568003031AEF1020504F8011C2946441C6145CE
:102578000AD30DF10902A2EB0E02654588BF0022BD
:102588001344181A03B0F0BD11F8012B04F8012FF9
:10259800EDE7302330318370C170031DF1E700008F
:1025A8002DE9F04F91B00C46DDF8688016461F46BD
:1025B800054601F03BFD036818460993FDF730FE18
:1025C80000230E93D8F800300A90073323F007034E
:1025D80003F1080294F81890D4F800B0C8F8002065
:1025E800D3E90023C4E91223D4E9128A2AF000436C
:1025F8000B934FF0FF3240469C4B0B99FEF76EFA57
:1026080070BB4FF0FF324046984B0B99FEF748FAE3
:1026180030BB0022002340465146FEF737FA10B17E
:102628002D2384F84330924B9248B9F1470F94BF59
:102638009846804603234FF0000A23612BF00403D9
:10264800236033462146284600970FAA00F0D4F9A4
:10265800013040F090804FF0FF3011B0BDE8F08FAE
:102668004246534640465146FEF738FA48B1BAF159
:10267800000FB8BF2D238048B8BF84F843307F4B84
:10268800D3E7636809F0DF015A1C42D1062363606F
:10269800002206920EAACDE904920DAA4BF480639B
:1026A80003920DF13302CDE901322360636842469B
:1026B8000093284653460B91FFF7D4FE0B998046AA
:1026C80047290D9908D1C81C02DB6368994240DD8F
:1026D800A9F102095FFA89F9B9F1650F1FD84A46CD
:1026E800013904F150000D91FFF71BFF0E9A824645
:1026F8001318012A236102DC2268D20701D50133AD
:1027080023619DF83330002B9BD02D2384F8433070
:1027180097E74729BCD1002BBAD10123B7E7B9F114
:10272800660F18D1002963680BDD216113B922688F
:10273800D00702D501330B4423614FF0000AA1658D
:10274800DFE713B92268D20701D50233F4E7012382
:10275800F2E74FF067090E9B994205DB2368216178
:10276800D807EAD54B1CE7E70029CCBF0122C1F105
:1027780002021344E0E723685A0507D42369424656
:1027880031462846B84701302BD164E7B9F1650FC7
:1027980040F2DD80D4E9120100220023FEF76CF933
:1027A800002833D0012331462846354AB84701303E
:1027B8003FF451AFDDE90D239A4202DB2368D807C5
:1027C8000FD5DDE9092331462846B84701303FF4E3
:1027D80042AF4FF0000804F11A090E9B013B434534
:1027E80009DC23689B0700F10281E0680F9B98428F
:1027F800B8BF184631E701234A4631462846B8474C
:1028080001303FF428AF08F10108E6E70D9B002BE3
:1028180038DC012331462846194AB84701303FF4CD
:102828001AAFDDE90D23134302D12368D907D8D5A0
:10283800DDE9092331462846B84701303FF40BAF9C
:102848004FF0000904F11A0A0D9B5B424B4501DC6D
:102858000E9B94E70123524631462846B84701307B
:102868003FF4F9AE09F10109EEE700BFFFFFEF7F82
:10287800D0500008D4500008DC500008D850000898
:10288800E05000080E9AA36D9A42A8BF1A46002A83
:10289800914637DC4FF0000B29EAE97904F11A0276
:1028A800D4F858A0AAEB09035B4533DCDDE90D2316
:1028B8009A423BDB2368DA0738D40E9A0D99A2EBCB
:1028C8000A03A2EB01099945A8BF9946B9F1000F7F
:1028D80034DC4FF0000829EAE97904F11A0ADDE945
:1028E8000D239B1AA3EB090343457FF77AAF012316
:1028F800524631462846B84701303FF4ACAE08F19D
:102908000108ECE71346314642462846B8470130ED
:10291800C0D1A0E60123314628460B92B8470130C2
:102928003FF499AE0B9A0BF1010BB9E73146DDE99B
:1029380009232846B8470130BFD18CE64B463146BB
:10294800284608EB0A02B8470130C2D183E60E9A3E
:10295800012A01DCDB0737D50123424631462846E8
:10296800B84701303FF477AEDDE909233146284600
:10297800B84701303FF46FAED4E9120100220023BA
:10298800FEF77AF8D8B90E9B08F10102013B3146EF
:102998002846B84701300ED15DE601234A46314644
:1029A8002846B84701303FF456AE08F101080E9B9F
:1029B800013B4345F1DC534604F15002E0E64FF099
:1029C800000804F11A09F2E701234246DFE7012370
:1029D8004A4631462846B84701303FF43CAE08F134
:1029E8000108E3680F995B1A4345F0DCFDE64FF0F8
:1029F800000804F11909F4E72DE9F047164699464D
:102A08008A680B6907469342B8BF1346336091F84A
:102A180043200C46DDF820800AB101333360236877
:102A2800990642BF336802333360256815F00605FE
:102A380006D104F1190AE36832689B1AAB4228DC14
:102A480094F84320131E226818BF012392062DD440
:102A58004946384604F14302C047013020D0236874
:102A6800E56803F00603042B18BF002532684FF011
:102A78000006A36808BFAD1A226908BF25EAE575F4
:102A88009342C4BF9B1AED181A34B5421AD10020DC
:102A980008E00123524649463846C047013003D171
:102AA8004FF0FF30BDE8F0870135C4E73020E1186A
:102AB80081F843005A1C94F845102244023382F8E6
:102AC8004310C5E70123224649463846C04701302E
:102AD800E6D00136D9E700002DE9FF470C46277EEE
:102AE8009146782F80469A460C9904F1430207D8FC
:102AF800622F0AD8002F00F0D980582F00F0A48048
:102B080004F1420684F842703AE0A7F16303152BFA
:102B1800F6D801A050F823F0792B00088D2B000877
:102B2800092B0008092B0008092B0008092B0008AD
:102B38008D2B0008092B0008092B0008092B000819
:102B4800092B00089B2C0008BD2B00087D2C0008D1
:102B5800092B0008092B0008BD2C0008092B0008C8
:102B6800BD2B0008092B0008092B0008852C00083C
:102B78000B6804F142061A1D1B680A6084F842308B
:102B88000123A4E0256808682E0600F104030AD58D
:102B980005680B60002D03DA2D236D4284F843305D
:102BA8000A235E4819E015F0400F05680B6018BF4E
:102BB8002DB2EFE70B682568181D0860280601D5B7
:102BC8001D6802E06906FBD51D886F2F0CBF08231E
:102BD8000A235248002184F843106668002EA8BFD3
:102BE8002168A660A4BF21F0040121600DB9002E60
:102BF8004DD01646B5FBF3F103FB1157C75D06F838
:102C0800017D2F46BB420D46F4D9082B0BD1236812
:102C1800DF0708D5236961689942DEBF302306F8CB
:102C2800013C06F1FF36921B22614B462146404685
:102C3800CDF800A003AAFFF7DFFE01304CD14FF01A
:102C4800FF3004B0BDE8F087344884F845700E685A
:102C5800236856F8045B1F060E6014D5D90744BFD5
:102C680043F0200323601DB9236823F02003236069
:102C78001023AFE7236843F0200323607823284814
:102C880084F84530E3E75E0648BFADB2E6E716468E
:102C9800BBE70B6826681D1D60690D6035061B685B
:102CA80001D5186002E07106FBD51880002316468E
:102CB8002361BAE70B681A1D0A601E6800213046B6
:102CC800626801F027FA08B1801B606063682361BD
:102CD800002384F84330A8E7324649464046236932
:102CE800D0470130ABD023689B0713D4E068039B1F
:102CF8009842B8BF1846A4E70123324649464046E1
:102D0800D04701309BD00135E36803995B1AAB4289
:102D1800F2DCEBE7002504F11906F5E7E2500008BC
:102D2800F35000080FB40A4B13B51C6824B1A3690B
:102D380013B9204601F0DCF805AB2046049AA168D7
:102D4800019301F061FE02B0BDE8104004B0704785
:102D58001000002070B50E46054618B183690BB9FE
:102D680001F0C6F8AB69AC6813B9284601F0C0F8A1
:102D78002C4B9C4220D16C68636EDB0705D4A38979
:102D8800980502D4A06D01F056F9A38919071DD53D
:102D98002369DBB1013EA36816F8011F013BA3605C
:102DA80039BB002B38DA22460A21284600F048F8B9
:102DB800013011D00A2511E01B4B9C4201D1AC68AF
:102DC800DAE71A4B9C4208BFEC68D5E7214628464B
:102DD80000F088F80028DDD04FF0FF35636EDA0781
:102DE80005D4A3899B0502D4A06D01F025F92846D6
:102DF80070BD002B04DAA2699A4206DC0A2904D0C5
:102E080023685A1C22601970C5E72246284600F03C
:102E180017F80130BFD1DFE70A2523685A1C226062
:102E28001D70DBE7D8510008F8510008B8510008B8
:102E3800024B01461868FFF78DBF00BF1000002045
:102E4800F8B50E461446054618B183690BB901F06A
:102E58004FF8214B9C422BD16C68A369A360A389CE
:102E68001A072FD523696BB323692068F6B2C01AF5
:102E780063693746834204DC2146284600F0A4FFF4
:102E880030BBA3680130013BA36023685A1C226051
:102E98001E706369834204D0A389DB0706D50A2E16
:102EA80004D12146284600F08FFF88B93846F8BD7E
:102EB8000A4B9C4201D1AC68CFE7094B9C4208BF42
:102EC800EC68CAE72146284600F00CF80028CBD069
:102ED8004FF0FF37EAE700BFD8510008F851000863
:102EE800B8510008324B70B51D6806460C4625B12E
:102EF800AB6913B9284600F0FBFF2E4B9C420FD15B
:102F08006C68A389B4F90C2019072CD4DD0611D4F8
:102F18000923336042F040034FF0FF30A3813EE0C5
:102F2800254B9C4201D1AC68EBE7244B9C4208BF7F
:102F3800EC68E6E7580712D5616B41B104F1440328
:102F4800994202D0304601F091FC00236363A389C3
:102F580023F02403A3810023636023692360A389EA
:102F680043F00803A38123694BB9A38903F42073B1
:102F7800B3F5007F03D02146304601F083F8A089DD
:102F8800B4F90C2010F001030AD00023A360636990
:102F98005B42A361236943B910F08000BAD170BDC8
:102FA800810758BF6369A360F4E70020F7E700BF13
:102FB80010000020D8510008F8510008B851000846
:102FC8002DE9F74F03690C690746A342C0F28380D5
:102FD800013C00F1140501F1140805EB8403019389
:102FE80058F8243055F8242001339A42B2FBF3F6FE
:102FF8004FEA840B08EB840932D34FF0000E4046A9
:10300800AC46F24650F8042B93B206FB03E3120CCD
:103018004FEA134E06FB02E29BB2AAEB0303DCF86D
:1030280000A04FEA124E1FFA8AFA53441FFA82FA96
:10303800DCF800208145CAEB124202EB23429BB226
:1030480043EA02434FEA224A4CF8043BDAD255F8E5
:103058000B302BB9019B043B9D421A462FD33C6190
:10306800384601F0EDFA002825DB28464FF0000C21
:10307800013658F8041BD0F800E08BB2ACEB030320
:103088001FFA8EF213440A0CC2EB1E4202EB2342D3
:103098009BB243EA0243C1454FEA224C40F8043B45
:1030A800E7D255F8242005EB840322B9043B9D425E
:1030B8001A460AD33C61304603B0BDE8F08F126867
:1030C800043B002ACBD1013CC6E71268043B002A26
:1030D800F0D1013CEBE70020EEE700000000000023
:1030E8002DE9F04F16461F46446A99B00546CDE9CA
:1030F8000467DDF8948074B9102001F003F80246E3
:10310800686220B9EA21AE4BAE4801F013FEC0E96F
:1031180001440460C4606B6A196851B15A6801239C
:1031280093404A608B60284601F050F800226B6A91
:103138001A603B1EAFBF0023012223F00043059312
:10314800A8BFC8F80030DDF814909F4BB8BFC8F886
:10315800002033EA090319D142F20F73249A13604D
:10316800C9F31303334300F08085269B53B9974B6B
:1031780022E0974B08930833269A1360089819B0F1
:10318800BDE8F08F914B08930333F5E7DDE904348C
:10319800CDE90C34DDE90C0100220023FDF76CFCBD
:1031A800804658B10123249A1360269B002B00F017
:1031B800598588481860431E0893DFE716AB0193CA
:1031C80017AB00932846DDE90C2301F0E5FAC9F3B3
:1031D8000A548246002C7ED0DDE90C010D9BA4F236
:1031E800FF34C3F3130343F07F5141F44011CDF88A
:1031F8004C800022784BFDF71FF86BA3D3E900231E
:10320800FDF7D2F96AA3D3E90023FDF717F80646BC
:1032180020460F46FDF75EF967A3D3E90023FDF7C3
:10322800C3F902460B4630463946FDF707F806460D
:103238000F46FDF769FC00228146002330463946D7
:10324800FDF724FC48B14846FDF744F932463B46B1
:10325800FDF712FC08B909F1FF39B9F1160F57D873
:10326800DDE90C015D4B03EBC903D3E90023FDF74E
:103278000DFC00284ED0002309F1FF390F93169B4F
:103288001C1B631E099349BFC4F101030023069365
:10329800002354BF06930993B9F1000F3CDB099B47
:1032A800CDF838904B44099300230A93229B092BAD
:1032B8006CD8052BC4BF043B2293229BC8BF0024B3
:1032C800A3F10203D8BF0124032B00F28B80DFE8AF
:1032D80003F02D4F4D5BDDE916431C4404F23243E5
:1032E800202BC3BFC3F1400304F2124009FA03F3D1
:1032F800C3F12003C6BF26FA00F0184306FA03F00C
:10330800FDF7D8F80123A1F1F871013C139370E798
:103318000123B3E70F90B2E7069BA3EB09030693DB
:10332800C9F100030A9300230E93BFE700230B9310
:10333800239B002B59DC4FF0010B5B46CDF808B0FE
:10334800CDF88CB00022686A4260042202F11406AB
:103358009E4241684FD9284600F0F8FE08900028A0
:103368004DD102464FF4D5711D4BCDE60123DEE762
:1033780000230B93239B09EB030B0BF10103012B98
:103388000293B8BF0123DDE70123F2E701240023FC
:103398000B9422934FF0FF3B00221223CDF808B084
:1033A8002392CFE7AFF3008061436F63A787D23FD3
:1033B800B3C8608B288AC63FFB799F501344D33F1C
:1033C80011510008285100080000F07F0D51000835
:1033D80004510008E15000080000F83FC0520008FE
:1033E800A451000801230B93D4E7DDF88CB05B46A9
:1033F800CDF808B0A6E7013141605200A6E76B6A34
:10340800089A1A60029B0E2B00F2A880002C00F08C
:10341800A580B9F1000F34DD9A4A09F00F0302EBD9
:10342800C30319F4807FD3E90034CDE910344FEA9F
:10343800291416D0DDE90C01934B0327D3E908239F
:10344800FDF7DCF9CDE9040104F00F048E4E54B900
:10345800DDE91023DDE90401FDF7D0F9CDE9040128
:1034680029E00227F2E7E10708D5DDE91001D6E9EE
:103478000023FDF799F8CDE91001013764100836EB
:10348800E5E700F0A580DDE90C01C9F100047D4BFA
:1034980004F00F0203EBC203D3E90023FDF784F81D
:1034A80002270023CDE90401774E2411002C40F0B7
:1034B8008480002BD2D10F9B002B00F08B80DDE99C
:1034C8000434CDE91034DDE9100100226F4BFDF71B
:1034D800DDFA00287ED0029B002B7BD0BBF1000FC9
:1034E80038DDDDE910010022694BFDF75DF85C4627
:1034F800CDE9040109F1FF3801373846FCF7EAFF46
:10350800DDE90423FDF750F80022624BFCF796FE34
:10351800A1F15076CDE910011196002C5DD1DDE9BD
:10352800040100225C4BFCF787FE02460B46CDE9FE
:1035380004233346109AFDF7C7FA002840F09E820C
:10354800DDE90401109A06F10043FDF79FFA00280F
:1035580040F09282DDE90C34CDE90434179B002B4E
:10356800C0F25381B9F10E0F00F34F81454B03EBC5
:10357800C903D3E90034CDE90634239B002B80F23C
:10358800DB80029B002B00F3D78040F07482DDE9DA
:1035980006010022404BFDF707F8DDE90423FDF79B
:1035A80089FA029C2646002840F04A823123089F67
:1035B80009F1010907F8013B46E2E20705D5D6E91A
:1035C8000023FCF7F1FF01230137641008366DE78B
:1035D800022770E7C846029C8FE70899294B2144C7
:1035E80012910B9903EBC403DDE9106753E9022339
:1035F800002955D000202949FDF700F93B463246FD
:10360800FCF71AFECDE91001089FDDE90401FDF77A
:103618007BFA0446FCF75EFF02460B46DDE904012F
:10362800FCF70AFE02460B463034CDE90423DDE9F7
:10363800102307F8014BFDF729FA002874D1DDE9BA
:10364800042300201149FCF7F7FDDDE91023FDF7FD
:103658001DFA002840F0B680129B9F423FF47AAFD3
:10366800DDE9100100220A4BFCF79EFF0022CDE99C
:103678001001DDE90401064BFCF796FFCDE90401D2
:10368800C3E700BFC0520008985200080000F03F8E
:103698000000244000001C40000014400000E03FEF
:1036A80030463946FCF780FF129BCDE91001089C93
:1036B8001493DDE90401FDF727FA1590FCF70AFFDA
:1036C80002460B46DDE90401FCF7B6FD159B0646EC
:1036D800303304F8013B129B0F469C424FF0000226
:1036E80024D1DDE91001B34BFCF7A8FD02460B46D7
:1036F80030463946FDF7E8F9002862D1DDE91023A4
:103708000020AC49FCF798FD02460B463046394686
:10371800FDF7BCF900283FF41DAF149F7B1E1493DE
:1037280017F8013C302BF8D0C1463AE0A24BFCF721
:103738003BFFCDE90401BCE7089FDDE90623DDE98D
:103748000401FDF75BF8FDF7DFF90446FCF7C2FE5C
:10375800DDE90623FCF728FF04F130060B46024694
:10376800DDE90401FCF768FD07F8016B089E029B80
:10377800BE1BB3423AD102460B46FCF75FFD024638
:103788000B46CDE90223DDE90623FDF79DF958BB79
:10379800DDE90623DDE90201FDF76EF908B1E1076D
:1037A80022D42846514600F011FD00233B70249B8B
:1037B80009F101001860269B002B3FF4DFAC1F6065
:1037C800DCE427463B461F4613F8012D392A07D16A
:1037D800089A9A42F7D13022089908F101080A702C
:1037E8001A7801321A709FE7C846EBE70022724B3D
:1037F800FCF7DAFE02460B46CDE90423002200233B
:10380800FDF73AF9002898D0CBE70B9A002A00F088
:10381800CD80229A012A00F3AF80139A002A00F083
:10382800A78003F233430A9C069F069A01211A4493
:103838000692099A28461A44099200F081FD064624
:10384800002F0CDD099B002B09DDBB42A8BF3B46BE
:10385800069AFF1AD21A0692099AD31A09930A9B52
:10386800F3B10B9B002B00F0A980002C10DD314632
:103878002246284600F01EFE5246014606462846C5
:1038880000F074FD80465146284600F09FFCC24671
:103898000A9B1A1B04D05146284600F00BFE8246AC
:1038A8000121284600F04CFD0E9B0446002B40F3F6
:1038B80087801A460146284600F0FCFD229B0446F4
:1038C800012B40F380804FF00008236904EB830349
:1038D800186900F0E7FCC0F12000099B184410F0BB
:1038E8001F0000F09280C0F12003042B40F38A806F
:1038F800C0F11C00069B074403440693099B03443C
:103908000993069B002B05DD51461A46284600F010
:103918002BFE8246099B002B05DD21461A462846C8
:1039280000F022FE04460F9B002B70D02146504623
:1039380000F086FE00286ADA002351460A2228464B
:1039480000F066FC0B9B824609F1FF39002B00F062
:103958009381314600230A22284600F059FCBBF126
:10396800000F064600F39380229B022B57DC8EE063
:10397800169BC3F1360356E7029B5C1E0A9BA342C3
:10398800B7BF0A9B1C1BE21A0E9BBEBF0A949B186A
:103998000E93029BB8BF0024002BBBBF069B029A64
:1039A800069F9F1AACBF029B00233EE70A9C069F16
:1039B8000B9E45E70000E03F000024400A9A6AE7B2
:1039C800229B012B19DC049BBBB9059BC3F3130392
:1039D8009BB9059B23F000431B0D1B0583B14FF0DA
:1039E8000108069B01330693099B013309930E9B3B
:1039F800002B7FF46AAF01206FE74FF00008F6E76D
:103A08009846F4E73FF47DAF18461C3072E7029BF6
:103A1800002B36DC229B022B33DDDDF808B0BBF12E
:103A2800000F0DD121465B460522284600F0F0FB29
:103A380001460446504600F003FE00283FF7B6ADA5
:103A4800239B089F6FEA03094FF000082146284688
:103A580000F0BCFB002E3FF4A4AEB8F1000F05D077
:103A6800B04503D04146284600F0B0FB3146284611
:103A780000F0ACFB95E600242646E1E7C146264661
:103A880094E50B9BDDF808B0002B00F0FC80002FBC
:103A980005DD31463A46284600F066FD0646B8F18F
:103AA800000F5CD02846716800F050FB074628B923
:103AB800024640F2EA217E4BFFF726BB326906F147
:103AC8000C01023292000C3000F032FB0122394620
:103AD800284600F049FDB0460646089B013302938C
:103AE800089B5B440A93049B03F001030993029B20
:103AF8002146504603F1FF3BFFF762FA0346414671
:103B08003033049050460B9300F09AFD32460690ED
:103B18002146284600F0B0FDC26807460B9B02BB51
:103B28000146504600F08CFD02460B9B394628465C
:103B3800CDE90B3200F04AFB229B0C9A029F43EA24
:103B48000201099B0B430B9B0DD1392B27D0069AF9
:103B5800002A01DD049B31338BF8003076E73046CC
:103B6800B9E70122E2E70699002904DB229801431C
:103B78000998014320D1002AEEDD5146012228464A
:103B8800029300F0F1FC2146824600F059FD00281E
:103B9800029B02DCE0D1DA07DED5392BDAD13923F2
:103BA8008BF800303B461F4617F8012C013B392A99
:103BB80050D001321A7049E7002A03DD392BEED0C4
:103BC8000133C9E7029A0A9902F8013C8A422AD0CD
:103BD800514600230A22284600F01AFBB0458246C7
:103BE8004FF000034FF00A024146284607D100F083
:103BF8000FFB80460646029B0133029377E700F0ED
:103C080007FB3146804600230A22284600F000FBC5
:103C18000646F0E7BBF1000FCCBF5F4601274FF027
:103C28000008089A1744514601222846029300F0DA
:103C38009BFC2146824600F003FD0028B2DC02D13D
:103C4800029BDB07AED43B461F4613F8012D302AF2
:103C5800FAD0FBE6089A9A42A5D1312309F1010965
:103C68001370F3E6134BFFF7A7BA269B002B7FF4DC
:103C780080AA114BFFF7A0BABBF1000F03DC229B0F
:103C8800022B3FF7CCAE089F21465046FFF798F924
:103C9800089A00F1300307F8013BBA1A9345B9DDD9
:103CA800514600230A22284600F0B2FA8246EBE782
:103CB800A4510008E0500008045100088A892DE941
:103CC800F041054610070C4658D44B68002B05DC1C
:103CD8000B6C002B02DC0020BDE8F081E66A002EA8
:103CE800F9D0002312F480522F682B6032D0606D17
:103CF800A3895A0705D56368C01A636B0BB1236C97
:103D0800C01A00230246E66A2846216AB047431CC7
:103D1800A38906D129681D292CD82A4ACA40D60762
:103D280028D5002262602269D904226004D5421C89
:103D380001D12B6803B96065616B2F600029CAD077
:103D480004F14403994202D0284600F08FFD002078
:103D58006063C1E7216A01232846B047411CC7D1E7
:103D68002B68002BC4D01D2B01D0162B01D12F603E
:103D7800B1E7A38943F04003A381ADE70F69002FA2
:103D8800A9D0930718BF00230E6808BF4B69A6EB9C
:103D980007080F608B60B8F1000F9CDD43463A4678
:103DA8002846216AA66AB047002806DCA3894FF096
:103DB800FF3043F04003A3818EE70744A8EB0008D7
:103DC800E9E700BF0100402038B50B6905460C46FD
:103DD80013B90025284638BD18B183690BB900F01E
:103DE80087F8144B9C421BD16C68B4F90C30002B3B
:103DF800EFD0626ED00704D4990502D4A06D00F00C
:103E08001AF928462146FFF759FF636E0546DA0777
:103E1800E0D4A3899B05DDD4A06D00F00DF9D9E7A6
:103E2800054B9C4201D1AC68DFE7044B9C4208BFBC
:103E3800EC68DAE7D8510008F8510008B8510008D2
:103E4800002310B50446C0E90033C0E90433836099
:103E580081814366C2818361194608225C30FEF77E
:103E6800F9FA054B24626362044BA362044BE362D4
:103E7800044B236310BD00BF914C0008B34C0008ED
:103E8800EB4C00080F4D0008014900F0AFB800BF27
:103E9800D13D000870B568254A1E55430E4605F108
:103EA800740100F02FFD044640B10021C0E900165E
:103EB8000C30A06005F16802FEF7CCFA204670BD10
:103EC800014800F0B8B800BFA4020020014800F083
:103ED800B3B800BFA4020020014800F0ACB800BF8E
:103EE8009F020020014800F0A7B800BF9F020020F1
:103EF80010B50446FFF7F0FFA3691BB1BDE81040F9
:103F0800FFF7F0BFC4E912332365134B134A1B684C
:103F1800A262A34208BF0123204608BFA36100F0A4
:103F28001FF86060204600F01BF8A060204600F0F3
:103F380017F800220421E0606068FFF781FF012282
:103F48000921A068FFF77CFF02221221E068FFF731
:103F580077FF0123A361D1E7CC500008913E000808
:103F6800F8B50746FFF7ACFF1E4B1E68B36913B9D7
:103F78003046FFF7BDFF4836D6E90134013B03D58B
:103F880033680BB33668F7E7B4F90C50D5B9164B5C
:103F980004F15800E360656600F04CF8FFF796FFFF
:103FA80008222946C4E90155C4E904552560A561DC
:103FB80004F15C00FEF74EFAC4E90D55C4E9125548
:103FC8002046F8BD6834D9E704213846FFF762FF78
:103FD800044630600028D5D1FFF778FF0C233B60FA
:103FE800EEE700BFCC5000080100FFFF2DE9F843C1
:103FF80006468846002700F14804D4E90195B9F13E
:10400800010905D52468002CF7D13846BDE8F883A6
:10401800AB89012B07D9B5F90E30013303D02946F6
:104028003046C04707436835E9E700000048704755
:104038006401002070477047704770B50E46B1F9AB
:104048000E10144600291D4696B007DA00232B608F
:10405800B3891A0610D44FF480630EE06A4600F064
:10406800A9FE0028F2DB019A02F47042A2F500537F
:104078005A425A412A60EEE740230020236016B0D6
:1040880070BD00008B8973B59D0706460C4607D5A1
:1040980004F14703236023610123636102B070BD0B
:1040A8006A4601ABFFF7C9FF00990546304600F0A4
:1040B80029FC48B9B4F90C309A05EFD423F003036E
:1040C80043F00203A381E3E70D4BB362A3892060A9
:1040D80043F08003A381009B20616361019B5BB176
:1040E8003046B4F90E1000F077FE28B1A38923F00A
:1040F800030343F00103A381A0890543A581CDE70C
:10410800913E0008024B0146186800F0FBBB00BF57
:1041180010000020034610B5C9B202449342184665
:1041280001D1002003E0047801338C42F6D110BDA0
:104138000A44914200F1FF3300D1704710B511F8DD
:10414800014B914203F8014FF9D110BD70B5466A91
:1041580004460D4676B91020FFF7D4FF0246606288
:1041680020B96621174B184800F0E4FDC0E9016644
:104178000660C660666AF36883B1636ADB6853F8F1
:104188002500B8B9012101FA05F6721D20469200F2
:1041980000F05EFB60B1C0E901560EE02122042167
:1041A800204600F055FB636AF060DB68002BE4D121
:1041B800002070BD026843F825200023C0E90333BE
:1041C800F7E700BF115100081852000870B5466A99
:1041D80005460C4676B91020FFF794FF0246686240
:1041E80020B98A21084B094800F0A4FDC0E90166FE
:1041F8000660C6603CB16B6A6268DB6853F82210DF
:10420800216043F8224070BD11510008185200087F
:104218002DE9F04198460C4600230E69074601F146
:10422800140005680133A9B202FB01812D0C4FEA85
:10423800114C02FB05C589B201EB05419E424FEACC
:10424800154840F8041BECDCB8F1000F22D0A36835
:10425800B34219DC616838460131FFF777FF05463C
:1042680028B90246B5210D4B0D4800F063FD2269BF
:1042780004F10C01023292000C30FFF759FF21467D
:104288003846FFF7A3FF2C4604EB86030136C3F834
:10429800148026612046BDE8F08100BFA4510008C3
:1042A80018520008020C12040346CAB9030410206D
:1042B80013F07F4F04BF1B02083013F0704F04BF88
:1042C8001B01043013F0404F04BF9B000230002B49
:1042D80005DB13F0804F00F1010008BF2020704774
:1042E8000020E5E70368024613F007000BD0D90762
:1042F80022D4980749BF5B089B08012013605CBF64
:1043080002201360704799B209B910201B0C13F0F2
:10431800FF0F04BF1B0A0830190704BF1B0904302C
:10432800990704BF9B080230D90703D45B0800F142
:10433800010003D0136070470020704720207047A9
:1043480010B50C460121FFF701FF024628B94FF4CA
:10435800A071044B044800F0EDFC012344610361A3
:1043680010BD00BFA4510008185200082DE9F04FF5
:1043780014460A6923690D469A42BEBF0B46254674
:104388001C46D5F810A0D4F81090AB6869680AEB01
:104398000907BB4285B0B8BF0131FFF7D7FE30B976
:1043A800024640F25D11414B414800F0C3FC00F168
:1043B80014063346002206EB870843451ED305F151
:1043C800140C04F114030CEB8A0C03EB890202921F
:1043D800ACEB0502153A22F00302043205F115018F
:1043E8008C4538BF04220192029A03939A4208D856
:1043F800002F55DC076105B0BDE8F08F43F8042BAA
:10440800DBE7B3F800A0BAF1000F20D0B1460022D4
:1044180005F1140E5EF8044BD9F800B0A1B21FFAEA
:104428008BFB0AFB01B11144D9F80020240C120CB3
:104438000AFB042404EB114489B241EA0441F4451F
:104448004FEA144249F8041BE4D801997250039AC0
:104458000433B2F80290B9F1000F1FD0B6464FF0FE
:10446800000A346805F114010A88BEF802B0A4B243
:1044780009FB02B2924444EA0A444EF8044B51F84C
:10448800044BBEF80020240C09FB04248C4504EBE3
:104498001A444FEA144AE7D8019AB4500436A3E7FD
:1044A80058F8043D002BA5D1013FA1E7A45100080D
:1044B800185200082DE9F843154612F00302064683
:1044C8000F4607D0254C013A002354F82220FFF765
:1044D8009FFE0746AD103DD0746A7CB91020FFF7E7
:1044E80011FE0246706228B94FF4D7711C4B1D4863
:1044F80000F020FCC0E901440460C460D6F82480C0
:10450800D8F808404CB940F271213046FFF718FF3F
:1045180000230446C8F8080003604FF00009EB07C1
:104528000AD5394622463046FFF720FF80463946ED
:104538003046FFF74BFE47466D100BD0206838B960
:10454800224621463046FFF711FF2060C0F8009050
:104558000446E4E73846BDE8F88300BF88530008FE
:1045680011510008185200082DE9F0470C4607467B
:1045780091462369496803EB6218A3684FEA621AF7
:1045880008F10106B3420BDB3846FFF7DFFD0546AD
:1045980048B9024640F2D911274B284800F0CAFB17
:1045A80001315B00EEE7002300F1140100F1100275
:1045B8001846534533DB20692AEAEA7A04F11403E2
:1045C80019F01F0901EB8A0103EB800C2BD08A46F6
:1045D8000022C9F1200E186800FA09F002434AF8CF
:1045E800042B53F8042B9C4522FA0EF2F3D8ACEBBB
:1045F8000403153B23F00303043304F11500844539
:1046080038BF0423CA500AB108F10206013E3846F1
:1046180021462E61FFF7DAFD2846BDE8F08742F80B
:10462800040F0133C5E7043953F8042B9C4541F8BE
:10463800042FF9D8EAE700BFA4510008185200086F
:1046480003460A69006930B5801A0DD11433143154
:1046580003EB820401EB820154F8045D51F8042D48
:10466800954202D004D3012030BDA342F4D3FBE726
:104678004FF0FF30F8E700002DE9F84F0C460646EA
:10468800114620469246FFF7DBFF051E11D1294649
:104698003046FFF75BFD024628B940F232213C4B19
:1046A8003C4800F047FB0123C0E904351046BDE84B
:1046B800F88FA4BF5346A2463046DAF80410A6BFC6
:1046C8001C4600250125FFF741FD024618B94FF4A5
:1046D80010712F4BE4E700F11408DAF81070C56088
:1046E8004FF0000C0AF114050AF11000C2462669C1
:1046F80004F1140905EB870E09EB860650F804BF90
:1047080059F8043B1FFA8BF161441FFA83FC1B0C18
:10471800A1EB0C01C3EB1B4303EB214389B24FEA26
:10472800234C4E4541EA03434AF8043BE6D8331B81
:10473800153B23F0030315340433A64238BF042382
:104748001D4443441E462C4674450ED30EF1030106
:10475800491B21F00301033DAE4538BF0021194430
:1047680051F8043D8BB11761A0E754F8048B1FFA88
:1047780088F16144081400EB184089B241EA00410D
:104788004FEA204C46F8041BDEE7013FE8E700BF8C
:10479800A4510008185200082DE9F3410121DDE970
:1047A800087690461D46FFF7D1FC044630B902460C
:1047B80040F20A31244B254800F0BCFAC5F3130334
:1047C800C5F30A552DBB0193B8F1000326D06846FE
:1047D8000093FFF787FD0099F0B1019AC0F120031B
:1047E80002FA03F30B43C24063610192019B002B61
:1047F80014BF02210121A3612161C5B1A5F233458E
:104808000544C0F135003D603060204602B0BDE887
:10481800F08143F48013D6E76161E7E701A8FFF769
:1048280061FD0121019B216163612030E5E704EB13
:104838008103A0F2324038601869FFF733FDC0EBFE
:1048480041113160E1E700BFA45100081852000887
:1048580038B502FB01F5294600F054F8044618B1B2
:104868002A460021FDF7F6FD204638BD38B5054635
:10487800002943D051F8043C0C1F002BB8BFE418A2
:1048880000F0DEFA1E4A1368104633B963601460FC
:104898002846BDE8384000F0D9BAA3420AD92168B1
:1048A8006218934201BF1A685B68521822606360FD
:1048B8000460EDE71A465B680BB1A342FAD91168A8
:1048C8005018A0420BD1206801445018834211604F
:1048D800DED118685B68014411605360D8E702D9DB
:1048E8000C232B60D4E7206821188B4201BF19687C
:1048F8005B680918216063605460C9E738BD00BF70
:104908000C020020F8B5CD1C25F0030508350C2D48
:1049180038BF0C25002D064601DBA94203D90C231C
:1049280033600020F8BD00F08BFA21490A6814466C
:104938009CB9204F3B6823B92146304600F094F9D2
:1049480038602946304600F08FF9431C23D10C23E8
:104958003046336000F07AFAE3E723685B1B17D42C
:104968000B2B03D923601C44256004E06368A24232
:104978000CBF0B605360304600F068FA04F10B007E
:10498800231D20F00700C21ACCD01B1AA350C9E778
:1049980022466468CCE7C41C24F00304A042E3D098
:1049A800211A304600F060F90130DDD1CFE700BFB1
:1049B8000C02002010020020936810B4013B002B69
:1049C800936007DA9469A34201DB0A2902D110BC7B
:1049D800FEF736BA1368581C10601970084610BCE8
:1049E8007047F8B506460F461446D518AC4201D1B3
:1049F800002007E03A46304614F8011BFFF7DCFFB9
:104A0800431CF3D1F8BD00002DE9F04F0D461446C4
:104A1800984606469DB018B183690BB9FFF768FA46
:104A2800894B9D421BD175686B6ED90705D4AB893C
:104A38009A0502D4A86DFFF7FEFAAB891B0701D5CA
:104A48002B69EBB929463046FEF74CFAC0B16B6EBC
:104A5800DC070ED54FF0FF301DB0BDE8F08F7B4B63
:104A68009D4201D1B568DFE7794B9D4208BFF568E3
:104A7800DAE7AB899805EDD4A86DFFF7DDFAE9E729
:104A88000023099320238DF8293030234FF00109A2
:104A9800CDF80C80DFF8BC818DF82A3023469A4681
:104AA80013F8012B0AB1252AF9D1BAEB040B0BD064
:104AB8005B46224629463046FFF793FF013000F057
:104AC800AA80099A5A4409929AF80030002B00F0FB
:104AD800A28000234FF0FF32CDE905230AF1010A35
:104AE800049307938DF853301A935446052214F80B
:104AF800011B5848FFF70EFB049AD8B9D10644BFEA
:104B080020238DF85330130744BF2B238DF85330DF
:104B18009AF800302A2B15D0544600204FF00A0C82
:104B2800079A214611F8013B303B092B4ED9B0B109
:104B3800079214E0A0EB080309FA03F31343A24613
:104B48000493D2E7039B191D1B680391002BBBBF7D
:104B58005B4242F0020207930793B8BF049223789E
:104B68002E2B0CD163782A2B35D1039B02341A1DC6
:104B78001B680392002BB8BF4FF0FF330593DFF893
:104B8800E4A0032250462178FFF7C4FA40B140233D
:104B9800A0EB0A0003FA00F0049B013403430493DA
:104BA80014F8011B06222C488DF82810FFF7B2FADA
:104BB80000283FD0294B1BBB039B073323F0070377
:104BC80008330393099B3B44099367E70C4601208C
:104BD8000CFB0232A5E700234FF00A0C19460134FA
:104BE8000593204610F8012B303A092A03D9002BE7
:104BF800C5D00591C3E7044601230CFB0121F0E76A
:104C080003AB00932A463046154B04A9FDF7C8FCB0
:104C18000746781CD6D16B6ED90705D4AB899A059F
:104C280002D4A86DFFF708FAAB895B063FF512AF0F
:104C3800099811E703AB00932A463046084B04A9AC
:104C4800FDF74AFFE4E700BFD8510008F851000813
:104C5800B8510008945300089E530008A92500087D
:104C6800EB4900089A53000838B50023054D04465F
:104C780008462B6000F092F9431C02D12B6803B15F
:104C8800236038BDA802002010B50C46B1F90E10FB
:104C980000F0E2F80028ABBF636DA3891B1823F46A
:104CA8008053ACBF6365A38110BD2DE9F0411F4659
:104CB8008B890546DB050C46164605D502230022DE
:104CC800B1F90E1000F098F8A389324623F4805306
:104CD800A38128463B46B4F90E10BDE8F04100F028
:104CE80017B810B50C46B1F90E1000F085F8431C42
:104CF800A38915BF606523F4805343F48053A381CF
:104D080018BFA38110BDB1F90E1000F031B8000032
:104D180038B50446084611460022054D2A601A4651
:104D2800FCF790FF431C02D12B6803B1236038BD08
:104D3800A80200201FB514461A46094B05461B68F1
:104D4800D8684CB1074BCDE9013400912B46064990
:104D580000F01EF800F09FF8044B1C46F3E700BF74
:104D680010000020A5530008B2530008E0530008C3
:104D780038B50023054D044608462B6000F0D6F8E8
:104D8800431C02D12B6803B1236038BDA802002060
:104D98000EB403B5014603AB054853F8042B00686D
:104DA8000193FFF731FE02B05DF804EB03B07047E2
:104DB8001000002038B50023064D04460846114669
:104DC8002B6000F0BBF8431C02D12B6803B12360B1
:104DD80038BD00BFA802002038B50023054D0446A1
:104DE80008462B6000F0BAF8431C02D12B6803B1C7
:104DF800236038BDA802002038B50446084611468D
:104E08000022054D2A601A4600F0B8F8431C02D16A
:104E18002B6803B1236038BDA802002082B001B915
:104E280001A942B14BB113780B601278101E18BF5C
:104E3800012002B070471046FBE76FF00100F8E769
:104E48000148FFF7F8B800BFA00200200148FFF7AB
:104E5800F3B800BFA002002038B504460846114642
:104E68000022054D2A601A4600F090F8431C02D132
:104E78002B6803B1236038BDA8020020034608460A
:104E880041B1FF2A04D98A224FF0FF301A607047D7
:104E980001200A707047062008B500F02BF80120A1
:104EA80000F08AF81F2938B504460D4604D91623A0
:104EB80003604FF0FF3038BD426C12B152F8213018
:104EC8004BB9204600F030F82A4601462046BDE896
:104ED800384000F017B8012B0AD0591C03D116230B
:104EE80003600120E7E70024284642F82540984758
:104EF8000020E0E7024B01461868FFF7D3BF00BF68
:104F08001000002038B50023064D04460846114617
:104F18002B6000F02BF8431C02D12B6803B12360EF
:104F280038BD00BFA802002000F010B85822024B7C
:104F38004FF0FF301A607047A80200205822024B39
:104F48004FF0FF301A607047A80200205822024B29
:104F58004FF0FF301A607047A80200205822024B19
:104F680000201A60704700BFA80200205822024B98
:104F78004FF0FF301A607047A80200205822024BF9
:104F88004FF0FF301A607047A80200205822024BE9
:104F98004FF0FF301A607047A8020020044A054904
:104FA8001368002B08BF0B4618441060184670475A
:104FB80014020020B0020020FEE700BFF8B500BFD1
:104FC800F8BC08BC9E467047F8B500BFF8BC08BCE2
:044FD8009E4670473A
:104FE00044533138423230206973204F4B210D0039
:104FF000445331384232302063616E277420626539
:1050000020666F756E6400002D2D2D2D2D2D4765AA
:10501000742054656D70657261747572652D2D2DE7
:105020002D2D2D0D0000000025642D54656D703A66
:1050300025640D0A0000000048756E3A25640D0ACB
:105040000000000054656E733A25640D0A000000EC
:10505000556E69743A25640D0A0000004465636961
:105060006D616C73313A25640D0A00004465636913
:105070006D616C73323A25640D0A00002D2D2D41AF
:105080006C6C207468652074656D706572617475F0
:1050900072652064617461212D2D2D0D00000000CA
:1050A00002030405060708090A0B0C0D0E0F101069
:1050B00000000000000000000000000001020304E6
:1050C0000607080900000000010203041400002084
:1050D000494E4600696E66004E414E006E616E009C
:1050E0003000303132333435363738394142434479
:1050F00045460030313233343536373839616263F2
:1051000064656600496E66696E697479004E614E29
:10511000005245454E54206D616C6C6F6320737571
:1051200063636565646564002F6D6E742F776F72BD
:105130006B73706163652F776F726B7370616365FA
:105140002F4743432D392D706970656C696E652F4B
:105150006A656E6B696E732D4743432D392D7069F7
:1051600070656C696E652D3230305F3230323030B0
:105170003532315F313539303035333337342F7391
:1051800072632F6E65776C69622F6E65776C6962EA
:105190002F6C6962632F7374646C69622F64746F1F
:1051A000612E630042616C6C6F632073756363658D
:1051B000656465640000000000000000000000005D
:1051C00000000000000000000000000000000000DF
:1051D00000000000000000000000000000000000CF
:1051E00000000000000000000000000000000000BF
:1051F00000000000000000000000000000000000AF
:10520000000000000000000000000000000000009E
:1052100000000000000000002F6D6E742F776F7289
:105220006B73706163652F776F726B737061636509
:105230002F4743432D392D706970656C696E652F5A
:105240006A656E6B696E732D4743432D392D706906
:1052500070656C696E652D3230305F3230323030BF
:105260003532315F313539303035333337342F73A0
:1052700072632F6E65776C69622F6E65776C6962F9
:105280002F6C6962632F7374646C69622F6D707226
:1052900065632E63000000000080E03779C341435E
:1052A000176E05B5B5B89346F5F93FE9034F384D8C
:1052B000321D30F94877825A3CBF737FDD4F157538
:1052C000000000000000F03F00000000000024404B
:1052D00000000000000059400000000000408F4026
:1052E000000000000088C34000000000006AF84091
:1052F0000000000080842E4100000000D0126341B5
:105300000000000084D797410000000065CDCD412A
:10531000000000205FA00242000000E8764837420B
:10532000000000A2941A6D42000040E59C30A242A9
:105330000000901EC4BCD64200003426F56B0C431E
:105340000080E03779C3414300A0D88557347643C5
:1053500000C84E676DC1AB43003D9160E458E14326
:10536000408CB5781DAF154450EFE2D6E41A4B449B
:1053700092D54D06CFF08044F64AE1C7022DB544E0
:10538000B49DD9794378EA44050000001900000073
:105390007D000000232D302B2000686C4C006566DA
:1053A00067454647002C2066756E6374696F6E3AD8
:1053B0002000617373657274696F6E2022257322F9
:1053C000206661696C65643A2066696C65202225F7
:1053D00073222C206C696E65202564257325730A61
:1053E000004300504F534958002E00002020202039
:1053F0002020202020282828282820202020202085
:105400002020202020202020202020208810101064
:1054100010101010101010101010101004040404BC
:105420000404040404041010101010101041414131
:10543000414141010101010101010101010101019C
:10544000010101010101011010101010104242422F
:10545000424242020202020202020202020202026C
:1054600002020202020202101010102000000000CE
:10547000000000000000000000000000000000002C
:10548000000000000000000000000000000000001C
:10549000000000000000000000000000000000000C
:1054A00000000000000000000000000000000000FC
:1054B00000000000000000000000000000000000EC
:1054C00000000000000000000000000000000000DC
:1054D00000000000000000000000000000000000CC
:0C54E000000000000000000000000000C0
:0454EC000D020008A5
:0454F000E9010008C6
:1054F40001000000100000000024F400200000005F
:105504001400002000000000D8510008F8510008E1
:10551400B851000800000000000000000000000076
:105524000000000000000000000000000000000077
:105534000000000000000000000000000000000067
:105544000000000000000000000000000000000057
:105554000000000000000000000000000000000047
:1055640000000000430000000000000000000000F4
:105574000000000000000000000000000000000027
:1055840000000000430000000000000000000000D4
:105594000000000000000000000000000000000007
:1055A40000000000430000000000000000000000B4
:1055B40000000000000000000000000000000000E7
:1055C4000000000043000000000000000000000094
:1055D40000000000000000000000000000000000C7
:1055E4000000000043000000000000000000000074
:1055F40000000000000000000000000000000000A7
:105604000000000043000000000000000000000053
:105614000000000000000000000000000000000086
:105624000000000043000000000000000000000033
:105634000000000000000000000000000000000066
:1056440000000000854E0008254E00080000000000
:10565400EB530008E9530008E0530008E053000846
:10566400E0530008E0530008E0530008E05300084A
:10567400E0530008E0530008E0530008FFFFFFFF79
:10568400FFFFFFFFFFFFFFFFFFFF0000010041538B
:105694004349490000000000000000000000000031
:1056A4000000000000000000000000000000415362
:1056B4004349490000000000000000000000000011
:1056C40000000000000000000000000000000000D6
:04000005080023C903
:00000001FF
